:02000002D0002C
:1040000000400D00B8510D00000006000C00050135
:084010000401FD08000000009E
:04401800704F0D00D8
:10401C0009480A49884208B505D0094A824202D0AB
:10402C00121A00F0F7FE0748074A0021121A00F096
:10403C00FFFE014808BD00BF30E5032024510D00F0
:10404C009CE503209CE50320EDE7032070B5074EAB
:10405C00074C00F065FBA41BA4080025A54200D169
:10406C0070BD56F8043B98470135F7E7F8500D0042
:10407C001C510D0000F013B808B500F026F8BDE88F
:10408C00084000F005BB00F001BA00F007BA007858
:10409C00B0FA80F04009704701230370704701218A
:1040AC00072000F045BE10B501210446072000F0A2
:1040BC0050FE204600F0C0FA0720002100F049FE17
:1040CC002046BDE8104000F0B7BA08B50121072022
:1040DC0000F03FFE40F6B83000F0AEFA00210720A9
:1040EC0000F037FE4FF47A7000F0A6FAC820FFF704
:1040FC00DAFFC820FFF7D7FFC820FFF7D4FF4FF433
:10410C00967000F099FA4FF4FA70FFF7CCFF4FF469
:10411C00FA70FFF7C8FF4FF4FA70FFF7C4FFC8201E
:10412C00FFF7C1FFC820FFF7BEFFC820FFF7BBFF9A
:10413C00BDE808404FF47A7000F07EBA08B5012053
:10414C00002100F01FF9064B00221A609A809A7128
:10415C00A2F580329A60BDE80840022000F002B956
:10416C009CE5032008B5024B1B689B68019308BDB6
:10417C006802030008B5024B1B68DB68019308BD9D
:10418C006802030008B5024B1B689B68019308BDCD
:10419C002C02030008B5024B1B68DB68019308BDB9
:1041AC002C02030008B5024B1B681B69019308BD68
:1041BC002C02030008B5024B1B685B68019308BD19
:1041CC001802030008B5024B1B685B69019308BD1C
:1041DC001802030008B5024B1B685B6C019308BD09
:1041EC004802030008B5024B1B685B69019308BDCC
:1041FC006402030008B5024B1B681B68019308BDE1
:10420C003C02030008B5024B1B68DB68019308BD38
:10421C003C02030008B5024B1B681B69019308BDE7
:10422C003C02030008B5024B1B685B69019308BD97
:10423C003C02030008B5024B1B689B69019308BD47
:10424C003C02030008B5024B1B68DB69019308BDF7
:10425C003C02030008B5024B1B681B6A019308BDA6
:10426C003C02030008B5024B1B689B6A019308BD16
:10427C003C02030008B5024B1B681B6A019308BD86
:10428C002802030008B5024B1B685B6A019308BD4A
:10429C002802030008B5024B1B689B6A019308BDFA
:1042AC002802030008B5024B1B68DB6A019308BDAA
:1042BC002802030008B5024B1B681B6B019308BD59
:1042CC002802030008B5024B1B685B6B019308BD09
:1042DC002802030008B5024B1B681B6C019308BD38
:1042EC002802030008B5024B1B68DB69019308BD6B
:1042FC003002030008B5024B1B681B6A019308BD12
:10430C003002030008B5024B1B681B68019308BD03
:10431C004C02030008B5024B1B681B69019308BDD6
:10432C004C02030008B5024B1B685B69019308BD86
:10433C004C02030008B5024B1B689B69019308BD36
:10434C004C02030008B5024B1B68DB69019308BDE6
:10435C004C02030008B5024B1B681B6A019308BD95
:10436C004C02030008B5024B1B685B68019308BD47
:10437C002002030008B5024B1B685B69019308BD62
:10438C002002030008B5024B1B68DB6A019308BDD1
:10439C002002030008B5034B1B68D3F88830019347
:1043AC0008BD00002002030008B5034B1B68D3F8BE
:1043BC009430019308BD00002002030008B5024BA5
:1043CC001B685B68019308BD4002030008B5024BF3
:1043DC001B689B68019308BD4002030008B5024BA3
:1043EC001B68DB68019308BD4002030008B5024B53
:1043FC001B681B69019308BD4002030008B5024B02
:10440C001B685B69019308BD4002030008B5024BB1
:10441C001B689B69019308BD4002030008B5024B61
:10442C001B68DB69019308BD4002030008B5024B11
:10443C001B681B6A019308BD4002030008B5024BC0
:10444C001B681B6B019308BD4002030008B5024BAF
:10445C001B685B6B019308BD4002030008B5024B5F
:10446C001B681B6C019308BD4002030008B5024B8E
:10447C001B685B6C019308BD4002030008B5024B3E
:10448C001B68DB6B019308BD4402030008B5024BAB
:10449C001B681B68019308BD1C02030008B5024B86
:1044AC001B685B68019308BD1C02030008B5024B36
:1044BC001B685B6C019308BD1C0203000022406862
:1044CC001146FFF7B3BF002240681146FFF7BEBF8D
:1044DC0040680022FFF7B2BF4068002281F0010162
:1044EC00FFF79CBF002340681A461946FFF78EBFA2
:1044FC00002340681A461946FFF780BF0022406827
:10450C001146FFF773BF002240681146FFF75EBFEC
:10451C00406800220221FFF761BF002340681A4661
:10452C00FFF74CBF024B03225A60024A1A607047D5
:10453C00A8E503208C4F0D0010B5044608462170E9
:10454C00FFF7D0FE00236360204610BD054B02220E
:10455C001A60054B054A9A60002018609880987183
:10456C00FFF700BFBCE50320B0E503200000FFFF10
:10457C00024800230360FFF72DBE00BFC0E50320F7
:10458C00F8B506460D468F180024BD420CD0336892
:10459C0015F8011B9B6830469847031E01DB1C4431
:1045AC00F3E7002C08BF1C462046F8BD13B50446A3
:1045BC00084659B1019100F067FC23680199DB684A
:1045CC000246204602B0BDE81040184702B010BDAC
:1045DC0003689B68184730B58BB000238DF82430E6
:1045EC00012A98BF0A2209AC0D46B1FBF2F101FB7E
:1045FC00125303F0FF03092B94BF30333733DBB274
:10460C00AA4204F8013DEFD92146FFF7CFFF0BB0CA
:10461C0030BD0000014B024A1A607047C4E503200C
:10462C00C04F0D00024B1A68024B1A60704700BF56
:10463C0030E50320C8E503200021FFF79BBE0000F6
:10464C00014B00229A607047CCE50320014B1860A7
:10465C00704700BF34E5032008B50B4B43B100F0A5
:10466C005DF903681B699847002801DDAFF30080F2
:10467C00064B43B100F0CCF903681B69984700283E
:10468C0001DDAFF3008008BD000000000000000059
:10469C0008B5FFF7E1FFFFF795FD014B186008BD6A
:1046AC0038E703200548064A064908B5121A00F0F7
:1046BC00B1FB054B054A1A6008BD00BF00F403208E
:1046CC0004F4032020510D0000F403201E1C279A33
:1046DC0007B5002300931A466FF07701FFF764FECD
:1046EC0003B05DF804FB000007B543880A2B08D023
:1046FC00502B0BD1094B1B684BB103B05DF804EB8D
:10470C001847FFF7E5FF03B05DF804FB00230093A7
:10471C001A466FF07701FFF747FEF4E7E0E5032058
:10472C0010B512480021FFF7C1FE114B1A68114B4E
:10473C009A42114B0CBF012200221A7001D0FFF7D4
:10474C00B1FFFFF737FD044600F07AFB0B4B13B1BA
:10475C002046AFF3008000210848FFF78FFEBDE82C
:10476C00104007480021FFF715BE00BF59460D0049
:10477C0000F403201E1C279ADCE503200000000037
:10478C00F5460D00704710B51821044600F038FBB3
:10479C00204610BDF0B5037D062B8DB00E4600F102
:1047AC0004074FF0000412D000F1080515F8011DA4
:1047BC000A223046FFF70FFFAF42044419D0002CF9
:1047CC00F4D02E213046FFF703FF0444EEE72F23ED
:1047DC006A4639460A208DF80040FFF703FD68460B
:1047EC0000F052FB33680246DB6869463046984756
:1047FC00044620460DB0F0BD10B5054B0446112201
:10480C0040F8043B002100F013FB204610BD00BF14
:10481C00E84F0D000346074A10B543F8042B01F18D
:10482C00100251F8044B43F8044B9142F9D10A7829
:10483C001A7010BDE84F0D0010B59DF8084044EA01
:10484C00032343EA024242EA0161042341600375F7
:10485C0010BD13B5CB7800938B784A780978FFF7A5
:10486C00EBFF02B010BD417470477047704708B53C
:10487C000021007CFFF75EFD40EAE07008BD08B542
:10488C000121007CFFF756FD40EAE07008BD08B539
:10489C00007CFFF747FD20EAE07008BD08B5007CFE
:1048AC00FFF738FD20EAE07008BD13B50446007C24
:1048BC000191FFF737FD0028019901DC607C20B1E4
:1048CC00207CFFF73FFD20EAE07002B010BD007CB9
:1048DC00FFF740BD10B51421044600F091FA2046B4
:1048EC0010BD000010B54FF47A7304460846002141
:1048FC00C4E90113044B2360012320746374114633
:10490C00FFF700FD204610BDFC4F0D0010B5142222
:10491C000446002100F08CFA204610BD10B50F4C57
:10492C0088B003A8FFF7F2FF2178BFF35B8F11F07B
:10493C0001010FD120460191FFF7A9FB019948B164
:10494C0003AA0748FFF7CEFF2046FFF7A5FB054853
:10495C0000F05AFA024808B010BD00BFE4E503208D
:10496C00E8E5032077480D007047417470477047A5
:10497C0008B5007CFFF776FC20EAE07008BD08B5AE
:10498C00007CFFF747FC20EAE07008BD08B5007C0E
:10499C00FFF750FC40EAE07008BD08B5007CFFF75B
:1049AC0041FC40EAE07008BD007CFFF74BBC37B51A
:1049BC00457C04462DB1207C03B0BDE83040FFF7A8
:1049CC0021BC007C0191FFF74DFC00280199F2DC21
:1049DC00284603B030BD10B51421044600F010FA7F
:1049EC00204610BD10B54FF0000C04460846114689
:1049FC004FF47A72C4E901C2044A22600122207485
:104A0C0062741A46FFF7F6FB204610BD2C500D00C1
:104A1C0013B50D4C2178BFF35B8F11F0010110D150
:104A2C0020460191FFF733FB019950B1074B084A1F
:104A3C000848FFF7D7FF2046FFF72EFB064800F08B
:104A4C00E3F9044802B010BDFCE5032084E6032022
:104A5C0000E6032008E703207B490D007047F8B5FA
:104A6C00064615460C468F18BC4206D0336814F81F
:104A7C00011B9B6830469847F6E72846F8BD007C3A
:104A8C000022FFF7F7BB007C0021FFF7FBBB007C8B
:104A9C000021FFF7FFBB007C0021FFF703BC007C6B
:104AAC000021FFF707BC10B51421044600F0A8F94B
:104ABC00204610BD10B54FF47A7304460846002109
:104ACC00C4E90113034B236020741146FFF702FC69
:104ADC00204610BD5C500D00002240681146FFF7C7
:104AEC0085BC002240681146FFF7A0BC002240683C
:104AFC001146FFF7ABBC40680022FFF79FBC406833
:104B0C00002281F00101FFF789BC002340681A469E
:104B1C001946FFF77BBC002340681A461946FFF77D
:104B2C006DBC002240681146FFF750BC4068002263
:104B3C000221FFF753BC002340681A46FFF73EBC26
:104B4C00024B04225A60024A1A6070471CE7032089
:104B5C0084500D00002340681A46FFF72FBC4068B4
:104B6C0000220221FFF73ABC002240681146FFF7F1
:104B7C002DBC002240681146FFF738BC002340686A
:104B8C001A461946FFF73ABC002340681A461946E4
:104B9C00FFF73CBC40680021FFF760BC4068002177
:104BAC00FFF764BC4068002281F00101FFF736BCBE
:104BBC0040680022FFF742BC002240681146FFF714
:104BCC0045BC002240681146FFF730BC2DE9F0438C
:104BDC00002495B016460D460746FFF70DFE2146FC
:104BEC0018220EA8009400F023F94023CDE90C34D0
:104BFC0021466B460CAA3046FFF7BCFA0446002847
:104C0C0046D1024601216868FFF7F0FB022180467D
:104C1C0022466868FFF7EAFB009E81462146002E7B
:104C2C0036D0002934D17368022B03D00A2B0BD059
:104C3C00F669F4E7B8F1000F04D071693846043115
:104C4C00FFF707FE4146F3E7B9F1000F01D14946E2
:104C5C00EEE77469102201A800F0EAF806238DF83B
:104C6C00143001AD04F108031834186859682A4649
:104C7C0003C20833A3421546F7D101A906A807AD14
:104C8C00FFF7C8FD0FCD3C1D0FC42B682370DEE76A
:104C9C000098FFF767FA384615B0BDE8F0830000BE
:104CAC00024B034A1A6000225A60704724E7032023
:104CBC00C0500D00232813B502D9002002B010BD3E
:104CCC00A0F10B03022B1AD8174C2178BFF35B8F82
:104CDC0011F001010BD120460191FFF7D8F9019990
:104CEC0028B11248FFF728FC2046FFF7D5F90F4BE7
:104CFC001878FFF7FFFA0028DFD10120DEE7012842
:104D0C0009D800F059F80021007CFFF7DBFA80F09D
:104D1C000100C0B2D2E709380128EED8FFF778FEBF
:104D2C00007CFFF797FAF2E72CE7032030E703202B
:104D3C00232838B504460D460AD8FF2908D0FFF7BA
:104D4C00B9FF28B129462046BDE83840FFF71ABA0A
:104D5C0038BD38B504460D46FFF71CFAFF2810D0B5
:104D6C00062804D84D2323FA00F0C30709D42046A3
:104D7C00FFF7A0FF28B129462046BDE83840FFF7D1
:104D8C0011BA38BD7047000038B500232025438088
:104D9C00142304460380856005610649284600F00B
:104DAC0031F804496060284600F02CF8E060204699
:104DBC0038BD00BFF4500D0030B50E4D2978BFF34F
:104DCC005B8F11F0010487B011D12846FFF75FF912
:104DDC0068B101A8FFF7D8FF01AA21460648FFF7E2
:104DEC0069FE2846FFF758F9044800F00DF8024810
:104DFC0007B030BD3CE7032040E70320914D0D0088
:104E0C00FFF743B9FFF73FB9002301461A4618468E
:104E1C0000F042B80A44914200F1FF3300D17047D0
:104E2C0010B511F8014B03F8014F9142F9D110BDA7
:104E3C0002440346934200D1704703F8011BF9E783
:104E4C0038B50D4B1D68AB6B04467BB91820FFF7CA
:104E5C001DFB0A4A0A4BA863C0E90023094B836077
:104E6C000B23838101220023C0E90423AB6B0022B6
:104E7C001C615A6138BD00BF34E503200E33CDAB45
:104E8C0034126DE6ECDE0500034613F8012B002A04
:104E9C00FBD1181A013870472DE9F843DFF8B880B8
:104EAC000646D8F800001F460D46914600F056F80D
:104EBC00254B1C6834B9254C1C60254B13B11B6861
:104ECC00C4F8883063681F2B07DDD8F8000000F0A9
:104EDC0047F84FF0FF30BDE8F8834EB3D4F88800A4
:104EEC0088B91C4B23B9D8F8000000F038F8F0E76B
:104EFC004FF48470FFF7CAFA0028F4D00023C0E9FD
:104F0C004033C4F88800636840F8239001229A402B
:104F1C0000EB8301D0F800311343022EC0F80031AE
:104F2C00C1F8807002BFD0F804311A43C0F80421D4
:104F3C006368D8F800005A1C0233626044F82350AE
:104F4C0000F00EF80020C6E7E0E7032054E703204A
:104F5C000000000099440D0098E50320704770474D
:104F6C00704700001D400D0059400D0081400D00A0
:104F7C0085400D0000000000000000000000000053
:104F8C0027450D001D450D0013450D0009450D006D
:104F9C00FD440D00F1440D00A14B0D00A94B0D007B
:104FAC00E5440D00DD440D00D3440D00C9440D0053
:104FBC00D94B0D006170700025592D256D2D256480
:104FCC005425483A254D3A2553257A00617363746C
:104FDC00696D65000000000000000000A1470D0095
:104FEC0091470D0093470D000000000000000000E9
:104FFC0079480D00E1480D00B7480D008D450D00B6
:10500C00A9480D007B480D008B480D00DB480D00B6
:10501C009B480D0073480D000000000000000000CC
:10502C0075490D00E3490D00BB490D008D450D0080
:10503C008B490D00A7490D0099490D00B5490D008C
:10504C0077490D007D490D000000000000000000B4
:10505C00694A0D00B34A0D008B4A0D006B4A0D00D6
:10506C00934A0D009B4A0D00A34A0D00AB4A0D005C
:10507C000000000000000000434B0D00394B0D00F8
:10508C002F4B0D00E54A0D00234B0D00174B0D0067
:10509C00A14B0D00A94B0D000B4B0D00034B0D004C
:1050AC00F94A0D00EF4A0D00D94B0D00000000002D
:1050BC0000000000614B0D006B4B0D00754B0D009B
:1050CC007F4B0D00894B0D00954B0D00A14B0D0036
:1050DC00A94B0D00B14B0D00BD4B0D00C54B0D0088
:1050EC00CF4B0D00D94B0D000000000049410D00C5
:1050FC0031450D0059450D007D450D0021460D0033
:10510C0031460D004D460D004D4B0D00AD4C0D00C4
:04511C00000000008F
:04512000000000008B
:10512400D84F0D0038E50320000000000000000007
:10513400000000000000000000000000000000006B
:10514400000000000000000000000000000000005B
:10515400000000000000000000000000000000004B
:10516400000000000000000000000000000000003B
:10517400000000000000000000000000000000002B
:0C5184000000000000000000E5E7032030
:10519000FFFFFFFF00000102030405060708090ADC
:1051A0000B0C0D0E0F101112131415161718191AD7
:0851B0001B1C1D1E1F2028001E
:0451B80078563412DF
:04000003D000401CCD
:00000001FF
